:100000000C94F72A0C94282B0C94282B0C94282B56
:100010000C94282B0C94282B0C94282B0C94282B14
:100020000C94282B0D94500B0D94500B0D94500BE9
:100030000C94282B0C94D4C30C94282B0C94282BB0
:100040000C94282B0C94D5940C94282B0C94282BCE
:100050000C94282B0C94282B0C942BFF0C9440F917
:100060000C94282B0C9451620C94282B0C94282B64
:100070000C94282B0C94282B0C94282B0C94282BB4
:100080000C94F29C0C94282B0C94282B0C94282B69
:100090000C94282B0C94282B0C94282B0C94282B94
:1000A0000C94282B0C94282B0C94C49C0C94282B77
:1000B0000C94282B0C94282B0C94282B0C94969C95
:1000C0000C94282B0C94282B0C94282B0C94282B64
:1000D0000C94282B0C94282B0C94282B0C94282B54
:1000E0000C94282B104913491A491D4921491749D5
:1000F000244927492B492E493149354938493B493B
:1001000017493F494249454984628A629B62A66217
:10011000AE62C362B262C362B662BA62C362C062F6
:1001200005D724D743D766D789D728D9ACD7CDD719
:10013000EED711D834D857D87AD89DD828D9C0D876
:10014000E3D806D9B3F6B6F6A5F6A9F6AFF6EDF6FE
:10015000BAF6BEF6C4F6C8F6CCF6D2F6D6F6DAF69D
:10016000EDF6E0F6E4F6E8F63DF842F847F851F827
:100170005BF8D4F865F86DF875F87FF889F893F8AE
:10018000A2F8ACF8D4F8B6F8C0F8CAF81C014601D9
:100190004E012201380128016A011E016801100187
:1001A00068013A016801740114011A018A017001A1
:1001B00056016C01500172015C01640126014C0181
:1001C0003601160118017E0180017E017E01660163
:1001D000084AD73B3BCE016E84BCBFFDC12F3D6CAE
:1001E00074319ABD56833DDA3D00C77F11BED9E414
:1001F000BB4C3E916BAAAABE000000803F05A84CF4
:10020000CDB2D44EB93836A9020C50B991868808BF
:100210003CA6AAAA2ABE000000803F000D946548B3
:100220000D9419070D945D480D9459070D9496226D
:100230000D94A3220D94A8070D947D060D94F50648
:100240000D9454240D94AB060D94AD460D946F227D
:100250000D94C0060D940F520D94600A0D94BC4984
:100260000D94E91A0D94B7460D9419250D94892221
:100270000D94B1060D942E070D94CF0A0D94620AC9
:100280000D947A0A0D94B2460D94523F0D94800657
:100290000D947B0A0D94A21F0D947C220D94A70649
:1002A0000D9422080D94D43F0D948C230D94E407F3
:1002B0000D94D2510D94921C0D9451220D94E60A86
:1002C0000D94901C0D94F2460D9462220D94C82258
:1002D0000D943D080D94DE060D9401080D949D1FAC
:1002E0000D94D9070D944D220D9453070D947E184B
:1002F0000D943F3F0D943C3F0D9444210D943323C6
:100300000D94B0220D949F1F0D9403410D946148EC
:100310000D9446200D94C4074E414E494E49545900
:10032000494E46CDCCCC3D0AD7233C17B7D13877C0
:10033000CC2B329595E6241FB14F0A0000204100D6
:1003400000C84200401C4620BCBE4CCA1B0E5AAE20
:10035000C59D7400407A10F35A00A0724E1809002F
:1003600010A5D4E80000E87648170000E40B54021A
:100370000000CA9A3B000000E1F505000080969855
:1003800000000040420F000000A0860100000010A5
:100390002700000000E803000000006400000000E7
:1003A000000A00000000000100000000002C76D8C8
:1003B00088DC674F0823DFC1DFAE59E1B1B796E5AE
:1003C000E3E453C63AE651997696E8E6C28426EB12
:1003D000898C9B62ED407C6FFCEFBC9C9F40F2BA25
:1003E000A56FA5F490055A2AF75C936B6CF9676DBD
:1003F000C11BFCE0E40D47FEF520E6B500D0ED9012
:100400002E0300943577050080841E080000204EDE
:100410000A000000C80C333333330F986E12831177
:1004200041EF8D2114893BE65516CFFEE6DB18D14E
:10043000844B381BF77C1D901DA4BBE42420328420
:10044000725E228100C9F124ECA1E53D27434F4DA6
:100450004D554E49434154494F4E0044525952550F
:100460004E004552524F525300494E464F004543AD
:10047000484F0047322F4733206261642070617219
:10048000616D65746572730A00D0A1D0BED0BD2EB7
:100490002E2E00D09FD0B0D180D0BAD183D0B92039
:1004A000585920D0BFD0B5D180D0B2D18BD0B90AA5
:1004B00000D09FD0B0D180D0BAD183D0B9205859C4
:1004C00020D0BFD0B5D180D0B2D18BD0B900205AC6
:1004D0003A200020593A200042656420583A200012
:1004E0004D65736820706F696E742063616E6E6F06
:1004F00074206265207265736F6C7665640A00D043
:100500009FD180D0BED0B4D0BED0BBD0B6D0B8D1F1
:1005100082D18C2E2E2E00D09DD0B5D18220D0B489
:10052000D0B2D0B8D0B6D0B5D0BDD0B8D18F2E0013
:10053000456E642066696C65206C6973740A0042BC
:100540006567696E2066696C65206C6973740A0062
:10055000286E6F2066696C652900534420707269AB
:100560006E74696E67206279746520004E6F742026
:100570005344207072696E74696E670A0043757225
:1005800072656E742066696C653A20006E046904B9
:1005900062045B044D046F66660044454255473A69
:1005A000004D3131332053006F6B0020573A004526
:1005B00020D09ED185D0BBD0B0D0B6D0B4D0B5D0ED
:1005C000BDD0B8D0B52E2E2E004520D09DD0B0D0B5
:1005D000B3D180D0B5D0B22E2E2E00496E76616C8C
:1005E00069642065787472756465720A0043290A2B
:1005F0000061626C656420286D696E2074656D70A1
:100600002000436F6C642065787472756465732094
:1006100061726520004B64200023646566696E6525
:100620002044454641554C545F004B6920002364EB
:100630006566696E652044454641554C545F004BE4
:1006400070200023646566696E6520444546415507
:100650004C545F00504944204175746F74756E6549
:100660002066696E69736865642120507574207412
:100670006865206C617374204B702C204B6920617D
:100680006E64204B6420636F6E7374616E747320AC
:1006900066726F6D2062656C6F7720696E746F2073
:1006A000436F6E66696775726174696F6E2E680A52
:1006B00000504944204175746F74756E6520666101
:1006C000696C6564212074696D656F75740A0045F5
:1006D0003120D0A3D091D095D093D090D09DD098F8
:1006E000D09520D0A2D095D09FD09BD09000D0A301
:1006F000D091D095D093D090D09DD098D09520D047
:10070000A2D095D09FD09BD09020D0A1D0A2D09E37
:10071000D09BD09000546865726D616C2052756EEC
:100720006177617900453120D0A0D0B0D0B7D0BE7C
:10073000D0B3D180D0B5D0B220D0BDD0B520D18338
:10074000D0B4D0B0D0BBD181D18F00D0A0D0B0D0A8
:10075000B7D0BED0B3D1802E20D181D182D0BED02F
:10076000BBD0B020D0BDD0B520D183D0B42E0048AE
:10077000656174696E67206661696C6564005049E3
:1007800044204175746F74756E65206661696C658F
:1007900064212054656D7065726174757265207492
:1007A0006F6F20686967680A00204B643A20002058
:1007B0004B693A2000204B703A20000A20436C61BC
:1007C0007373696320504944200A002054753A200D
:1007D00000204B753A2000206D61783A2000206D92
:1007E000696E3A200020643A200020626961733A01
:1007F0002000504944204175746F74756E65206601
:1008000061696C6564212042616420657874727549
:10081000646572206E756D6265720A0050494420ED
:100820004175746F74756E652073746172740A001B
:1008300020643A0020693A0020703A0043617365F1
:10084000206C696768743A206F66660A00436173BA
:1008500065206C696768743A206F6E0A00D092D187
:100860008BD0BAD0BB2E0A0046616465204865690A
:100870006768742000426564204C6576656C696E1B
:100880006720004661696C656420746F20656E6145
:10089000626C6520426564204C6576656C696E67A4
:1008A0000A004D65736820706F696E742063616E15
:1008B0006E6F74206265207265736F6C7665640A72
:1008C000004D34323120696E636F7272656374203B
:1008D000706172616D657465722075736167650A18
:1008E000003A200050726F6265205A204F6666738E
:1008F0006574003F5A206F7574206F662072616EB8
:10090000676520282D323020746F203230290A008C
:10091000617869733A70776D5F7363616C65207C91
:100920007374617475735F726573706F6E73657CD9
:100930000A0044726976657220726567697374652E
:1009400072733A00733276736209007332767361A0
:100950000900313230430900313433430900313565
:10096000304309003135374309006F7409006F7453
:10097000707709007332676109007332676209009A
:100980006F6C6109006F6C62090073747374090005
:10099000445256535441545553005374616C6C6720
:1009A000756172642074687273002D73746172745F
:1009B0000900687973746572657369730A2D656ED1
:1009C000640900626C616E6B2074696D65006F660E
:1009D000662074696D6509004F54207072657761F7
:1009E000726E206861730A6265656E207472696751
:1009F0006765726564004F54207072657761726E2E
:100A0000005B6D6D2F735D090070776D0A746872FD
:100A10006573686F6C640900747374657009006DA8
:100A200073746570730900737465616C74684368EE
:100A30006F70007673656E7365090050574D2073B3
:100A400063616C65090043532061637475616C09CF
:100A500000486F6C642063757272656E7400527525
:100A60006E2063757272656E74004D415820637517
:100A70007272656E7400524D532063757272656EAA
:100A800074005365742063757272656E7400456EF0
:100A900061626C65640900090041637469766520D0
:100AA00045787472756465723A2000496E76616C9F
:100AB00069642065787472756465720A004E6F20EF
:100AC000436865636B73756D2077697468206C6922
:100AD0006E65206E756D6265722C204C617374209A
:100AE0004C696E653A2000D09ED0A1D0A2D090D0A3
:100AF0009DD09ED092D09BD095D09DD09E2E200090
:100B00005072696E7465722073746F7070656420C2
:100B100064756520746F206572726F72732E204643
:100B2000697820746865206572726F7220616E64E6
:100B300020757365204D39393920746F20726573C3
:100B4000746172742E202854656D706572617475BD
:100B500072652069732072657365742E2053657405
:100B600020697420616674657220726573746172A5
:100B700074696E67290A004E6F20436865636B7362
:100B8000756D2077697468206C696E65206E756D6F
:100B90006265722C204C617374204C696E653A203A
:100BA00000636865636B73756D206D69736D617447
:100BB00063682C204C617374204C696E653A200088
:100BC0004C696E65204E756D626572206973206E8A
:100BD0006F74204C617374204C696E65204E756D86
:100BE0006265722B312C204C617374204C696E65E8
:100BF0003A20004D313130004D33310053442072E2
:100C0000656164206572726F720A00446F6E6520C0
:100C10007072696E74696E672066696C650A00207F
:100C2000496E76616C69642065787472756465726A
:100C30002000000000000000000000000000000094
:100C400096430000704300008243D09ED0A1D0A202
:100C5000D090D09DD09ED092D09BD095D09DD09E4C
:100C60002E20005072696E7465722073746F7070FC
:100C700065642064756520746F206572726F72738D
:100C80002E2046697820746865206572726F722024
:100C9000616E6420757365204D39393920746F2079
:100CA000726573746172742E202854656D7065725C
:100CB00061747572652069732072657365742E2086
:100CC000536574206974206166746572207265735F
:100CD00074617274696E67290A0053544F5020631F
:100CE000616C6C65642062656361757365206F6615
:100CF00020424C546F756368206572726F72202DAC
:100D000020726573746172742077697468204D393C
:100D100039390A0042696C696E656172204C6576EA
:100D2000656C696E6720477269643A0A00537562A0
:100D30006469766964656420776974682043415406
:100D40004D554C4C20524F4D204C6576656C696E6C
:100D50006720477269643A0A00D092D0BED0B7D0FB
:100D6000B2D180D0B0D18220D0BDD0B520D183D037
:100D7000B4D0B0D0BBD181D18F0020284452595279
:100D8000554E2900473239204175746F2042656401
:100D9000204C6576656C696E67003F20284C2C52AC
:100DA0002C462C4229206F7574206F6620626F7567
:100DB0006E64732E0A003F2856296572626F736550
:100DC000206C6576656C20697320696D706C617547
:100DD0007369626C652028302D34292E0A00426127
:100DE00064205A2076616C75650A004E6F20626936
:100DF0006C696E65617220677269640A0046696C8D
:100E0000652064656C657465643A0044656C65745E
:100E1000696F6E206661696C65642C2046696C653B
:100E20003A20005072696E742074696D653A200032
:100E3000000136372603FFFFFF353C3D380EFFFF2C
:100E4000FF312E303E12FFFFFFFF28FF0408090785
:100E5000FF2C1A1C18FFFF2A08440A424324221EB2
:100E60002C50726F7465637465642050696E0A005B
:100E70002020206E6F6E2D7374616E646172642029
:100E800050574D206D6F646500433A2000423A2070
:100E900000413A200020202020434F4D00202020F8
:100EA000636F6D7061726520696E746572727570C2
:100EB0007420656E61626C6564002020206F766529
:100EC00072666C6F7720696E7465727275707420CB
:100ED000656E61626C6564003A2000202020205419
:100EE000494D534B00423A200020202020544343D8
:100EF0005200413A20002020202054434352002039
:100F000020202043533A20002020202057474D3AEC
:100F1000200050574D3A20202534640050574D3A58
:100F200020202534640047004800000088008A0023
:100F30008C00B300B400000098009A009C00A80048
:100F4000AA00AC0028012A012C01202020205449AD
:100F50004D455200440045006E00800081006F0046
:100F6000B000B1007000900091007100A000A100DD
:100F7000720020012101730020697320616C736F7E
:100F8000207469656420746F2074686973207069C7
:100F90006E0054494D45523143000A202E00202056
:100FA000004D6573682056616C69646174696F6E89
:100FB0002053746F707065642E00696E206D6F76BB
:100FC000655F746F282920666565645F76616C755E
:100FD0006520666F722058593A004C656176696EDB
:100FE0006720473236004732362048656174696EA3
:100FF00067204E6F7A7A6C652E004732362048653E
:101000006174696E67204265642E00446F6E6520CE
:101010005072696D696E67004669786564204C6539
:101020006E677468205072696D652E005573657225
:101030002D436F6E74726F6C6C6564205072696DB5
:1010400065002C2065793D0029202D3E20286578FB
:101050003D002C2073793D0020436F6E6E656374F4
:10106000696E672077697468207665727469636158
:101070006C206C696E65202873783D002C206579A2
:101080003D0029202D3E202865783D002C207379D5
:101090003D0020436F6E6E656374696E67207769EB
:1010A000746820686F72697A6F6E74616C206C6905
:1010B0006E65202873783D004C656176696E672007
:1010C000473236003F53706563696669656420582E
:1010D0002C5920636F6F7264696E617465206F753F
:1010E00074206F6620626F756E64732E0A003F284D
:1010F000522965706561742076616C7565206E6F2C
:101100007420706C61757369626C653B206D7573DA
:1011100074206265206174206C6561737420312EC7
:101120000A003F537065636966696564206E6F7A73
:101130007A6C652074656D70657261747572652076
:101140006E6F7420706C61757369626C652E0A0035
:101150003F5370656369666965642066696C616D9B
:10116000656E742073697A65206E6F7420706C618F
:10117000757369626C652E0A003F5370656369661A
:10118000696564207072696D65206C656E6774684E
:10119000206E6F7420706C61757369626C652E0AC5
:1011A000003F537065636966696564206E6F7A7A83
:1011B0006C652073697A65206E6F7420706C617540
:1011C0007369626C652E0A003F53706563696669D6
:1011D00065642052657472616374696F6E204D7529
:1011E0006C7469706C696572206E6F7420706C61CC
:1011F000757369626C652E0A003F52657472616393
:1012000074696F6E204D756C7469706C69657220BD
:101210006D757374206265207370656369666965B6
:10122000642E0A003F537065636966696564206CCB
:101230006179657220686569676874206E6F7420D3
:10124000706C61757369626C652E0A003F5370653E
:10125000636966696564206265642074656D7065A4
:10126000726174757265206E6F7420706C61757335
:1012700069626C65202834302D31343043292E0AC0
:101280000047323620636F6D6D616E642073746148
:10129000727465642E2057616974696E6720666F89
:1012A00072206865617465722873292E0A002569A9
:1012B000730025696D2025697300256968202569FB
:1012C0006D202569730025696420256968202569DA
:1012D0006D202569730025697920256964202569B9
:1012E000682025696D20256973004572726F722030
:1012F00077726974696E6720746F20454550524F4C
:101300004D210A00454550524F4D20646174617370
:10131000697A65206572726F722E0A00290A0020B0
:1013200062797465733B2063726320005365747443
:10133000696E67732053746F726564202800290AF0
:10134000002062797465733B206372632000207310
:10135000746F7265642073657474696E677320724C
:101360006574726965766564202800202863616C65
:1013700063756C6174656429210A0020213D200099
:10138000454550524F4D20435243206D69736D6166
:10139000746368202D202873746F7265642920009F
:1013A0002053697A653A2000496E6465783A2000D6
:1013B000204D61726C696E3D563535290A0028450D
:1013C0004550524F4D3D00454550524F4D2076659A
:1013D0007273696F6E206D69736D6174636820004C
:1013E00048617264636F6465642044656661756C0E
:1013F000742053657474696E6773204C6F61646503
:10140000640A0090010000900100006400000010D8
:101410002700000000484300001643000020410060
:1014200000C8410000A0420000A0420000C84400E3
:1014300000EA437C3C3E5E2B3D3F2F5B5D3B2C2A0C
:10144000225C00205A3A0020593A0020436F756E02
:101450007420583A0020453A00205A3A0020593A60
:1014600000583A004469666665723A200046726F19
:101470006D5374703A00537465707065723A00551C
:101480006E4C6576656C3A004C6576656C65643AC1
:10149000005261773A20202020000A4C6F67696370
:1014A000616C3A003A004361703A00544845524D2D
:1014B000414C5F50524F54454354494F4E004155A3
:1014C000544F5245504F52545F53445F535441540C
:1014D000555300454D455247454E43595F50415283
:1014E00053455200434153455F4C494748545F427E
:1014F00052494748544E45535300544F47474C4573
:101500005F4C494748545300534F46545741524546
:101510005F504F574552004255494C445F50455229
:1015200043454E54004C4556454C494E475F444157
:101530005441005A5F50524F4245004155544F4C60
:101540004556454C005052494E545F4A4F42005058
:10155000524F4752455353004155544F5245504FF7
:1015600052545F54454D5000564F4C554D455452C2
:10157000494300454550524F4D0053455249414C57
:101580005F584F4E5F584F4646004649524D5741AF
:1015900052455F4E414D453A4D61726C696E203146
:1015A0002E312E3920284769746875622920534FDF
:1015B000555243455F434F44455F55524C3A68741A
:1015C0007470733A2F2F6769746875622E636F6D3C
:1015D0002F4D61726C696E4669726D776172652F0D
:1015E0004D61726C696E2050524F544F434F4C5FA7
:1015F00056455253494F4E3A312E30204D414348C3
:10160000494E455F545950453A5465766F20426CB7
:1016100061636B205769646F772045585452554475
:1016200045525F434F554E543A3120555549443A3F
:1016300034356565626561302D633563652D3461D0
:1016400065332D626364372D64313437323035347D
:10165000303134380A002F2F20002054002052004F
:10166000416363656C65726174696F6E3A20500006
:101670005741524E494E4721204C6F77205A204AFD
:1016800065726B206D6179206C65616420746F20D8
:10169000756E77616E746564207061757365732E05
:1016A0000A00205A00205900580020204D61783A45
:1016B0002000205A00205900580020204D696E3A21
:1016C0002000D092D0BAD0BB2E00D092D18BD0BA0D
:1016D000D0BB2E00536F667420656E6473746F7098
:1016E000733A200020466C6F773A2000206F7574A3
:1016F000206F662072616E67650A00536572766FAF
:1017000020003A200020536572766F2000D09AD0D6
:10171000BED180D180D0B5D0BAD186D0B8D0B820D3
:10172000D0BFD180D0B8D0BCD0B5D0BDD0B5D0BDA1
:10173000D18B004572723A20546F6F20666172211E
:1017400000546F6F206661722066726F6D20726543
:10175000666572656E636520706F696E740A004518
:101760004550524F4D204F4B0A0024F4D43050C303
:101770008E20C2A24017828B7011127A910D816C5B
:10178000D90AA861E108C7586607615143061E4B94
:101790005D05C145A7041A411104093D980371393B
:1017A00031034036DB0265339102D4305402802E7F
:1017B0001D02632CEE01752AC501B028A001102777
:1017C00081018F2564012B244B01E0223401AC21DF
:1017D0001F018D200D01801FFC00841EED00971D50
:1017E000DF00B81CD200E61BC600201BBC00641A38
:1017F000B200B219A8000A19A0006A189900D117FE
:10180000910040178B00B516840031167E00B31589
:1018100079003A157300C7146F0058146A00EE136C
:1018200066008813630025135E00C7125B006C120C
:10183000570015125400C111510070114F002111B1
:101840004B00D61049008D1047004610440002108E
:101850004200C00F4000800F3E00420F3C00060FC8
:101860003B00CB0E3800930E37005C0E3500270E80
:101870003400F30D3200C10D3100900D3000600DC9
:101880002E00320D2D00050D2C00D90C2B00AE0CB6
:101890002900850C29005C0C2700350C27000E0C54
:1018A0002600E80B2400C40B2400A00B23007D0BB2
:1018B00023005A0B2100390B2100180B2000F80AD5
:1018C0001F00D90A1E00BB0A1E009D0A1D00800AC7
:1018D0001D00630A1C00470A1B002C0A1B00110A8A
:1018E0001A00F7091A00DD091900C4091900AB092B
:1018F0001900920917007B091800630917004C09A9
:10190000160036091600200916000A091500F50808
:101910001500E0081400CC081400B8081400A4084E
:101920001400900813007D0812006B08130058087B
:101930001200460812003408110023081100120892
:10194000110001081100F0071000E0071000D00797
:101950001000C0071000B0070F00A107100091078A
:101960000E0083070F0074070F0065070E0057076E
:101970000E0049070E003B070D002E070E00200742
:101980000D0013070D0006070D00F9060C00ED060B
:101990000D00E0060C00D4060C00C8060C00BC06C6
:1019A0000C00B0060C00A4060B0099060C008D0676
:1019B0000B0082060B0077060B006C060B0061061D
:1019C0000A0057060B004C060A0042060A003806B9
:1019D0000A002E060A0024060A001A060A0010064B
:1019E000090007060A00FD050900F4050900EB05DA
:1019F0000900E2050900D9050900D0050900C7055D
:101A00000900BE050900B5050800AD050800A505DB
:101A100009009C050800940508008C050800840551
:101A200008007C050800740508006C0507006505C2
:101A300008005D050700560508004E05070047052C
:101A400007004005080038050700310507002A0592
:101A50000700230507001C050600160507000F05F3
:101A600007000805060002050700FB040600F50450
:101A70000700EE040600E8040600E2040700DB04A9
:101A80000600D5040600CF040600C9040600C304FE
:101A90000600BD040600B7040600B1040500AC044E
:101AA0000600A6040600A00405009B040600950499
:101AB0000500900406008A040500850405008004E2
:101AC00006007A04050075040500700405006B0427
:101AD000050066040500610405005C040500570468
:101AE0000500520405004D040500480405004304A8
:101AF00005003E0404003A040500350405003004E6
:101B000004002C04050027040400230405001E041F
:101B100004001A04040016040500110404000D0456
:101B20000400090405000404040000040400FC038C
:101B30000400F8030400F4030400F0030400EC03C1
:101B40000400E8030400E4030400E0030400DC03F1
:101B50000400D8030400D4030400D0030400CC0321
:101B60000400C8030300C503030024F404D9201BA8
:101B7000C40C5C0E9804C4095F0265077101F4058A
:101B8000F900FB04B30048048700C103690058034F
:101B9000550003034500BE023A008402310053029F
:101BA0002A002902250004022000E4011C00C801CB
:101BB0001900AF011700980114008401130071018E
:101BC00010006101100051010E0043010D003601AB
:101BD0000B002B010B0020010B00150109000C016B
:101BE000090003010800FB000800F3000800EB00F7
:101BF0000700E4000600DE000600D8000600D20060
:101C00000600CC000500C7000500C2000500BD00AD
:101C10000400B9000400B5000400B1000400AD00E8
:101C20000400A9000400A5000300A20003009F0017
:101C300004009B000300980003009500020093003D
:101C40000300900003008D0002008B000300880059
:101C500002008600020084000300810002007F0071
:101C600002007D0002007B00020079000200770084
:101C70000100760002007400020072000100710091
:101C800002006F0002006D0001006C0002006A009B
:101C900001006900020067000100660001006500A4
:101CA00001006400020062000100610001006000A8
:101CB00001005F0002005D0001005C0001005B00AC
:101CC00001005A00010059000100580001005700AE
:101CD00001005600010055000100540001005300AE
:101CE00000005300010052000100510001005000AB
:101CF00001004F0001004E0000004E0001004D00A9
:101D000001004C0001004B0000004B0001004A00A4
:101D100001004900010048000000480001004700A0
:101D2000010046000000460001004500000045009B
:101D30000100440001004300000043000100420094
:101D4000000042000100410000004100010040008D
:101D500001003F0000003F0001003E0000003E0087
:101D600001003D0000003D0001003C0000003C007F
:101D700000003C0001003B0000003B0001003A0075
:101D800000003A000100390000003900010038006D
:101D90000000380000003800010037000000370064
:101DA000010036000000360000003600010035005A
:101DB0000000350000003500010034000000340050
:101DC0000000340001003300000033000000330045
:101DD000010032000000320000003200010031003A
:101DE0000000310000003100010030000000300030
:101DF0000000300001002F0000002F0000002F0025
:101E000000002F0001002E0000002E0000002E0018
:101E100001002D0000002D0000002D0000002D000D
:101E200001002C0000002C0000002C0000002C0001
:101E300001002B0000002B0000002B0000002B00F5
:101E400001002A0000002A0000002A0000002A00E9
:101E500001002900000029000000290000002900DD
:101E600000002900010028000000280000002800D0
:101E700000002800000028000100270000002700C3
:101E800000002700000027000000270001002600B6
:101E900000002600000026000000260000002600AA
:101EA000010025000000250000002500000025009D
:101EB000000025000000250001002400000024008F
:101EC0000000240000002400000024000100230082
:101ED0000000230000002300000023000000230076
:101EE0000000230000002300010022000000220067
:101EF000000022000000220000002200000022005A
:101F0000010021000000210000002100000021004C
:101F1000000021000000210000002100010020003D
:101F20000000200000002000000020000000200031
:101F300000002000000020000000200001001F0021
:101F400000001F0000001F0000001F0000001F0015
:101F500000001F0000001F0001001E0000001E0006
:101F600000001E0000001E000000043700001E29B3
:101F70000000511B00005810000010090000CC04A4
:101F800000007802000041010000D09CD0B8D0BA17
:101F9000D180D0BED188D0B0D0B3205A00D09FD04D
:101FA000BED182D0BED0BA00D09FD0BED182D0BE2A
:101FB000D0BA00D09AD183D0BBD0B5D18020320026
:101FC000D09AD183D0BBD0B5D180203200D09AD165
:101FD00083D0BBD0B5D180203200D09AD183D0BB82
:101FE000D0B5D180203100D09AD183D0BBD0B5D12B
:101FF00080203100D09AD183D0BBD0B5D1802031A0
:1020000000D0A1D182D0BED0BB00D0A1D182D0BEA1
:10201000D0BB00D0A1D0BED0BFD0BBD0BE00D0A11D
:10202000D0BED0BFD0BBD0BE00D092D18BD181D09A
:10203000BED182D0B020D181D0BFD0B0D0B4D0B08A
:1020400000D092D18BD181D0BED182D0B020D181AD
:10205000D0BFD0B0D0B4D0B000D0A1D0BAD0BED113
:1020600080D0BED181D182D18C00D0A1D0BAD0BED7
:10207000D180D0BED181D182D18C00D0A1D0BAD0B4
:10208000BED180D0BED181D182D18C00D09CD0B5C0
:10209000D0BDD18E00D09FD180D0B5D0B4D0BDD02E
:1020A000B0D0B3D180D0B5D0B220504C4120D18136
:1020B000D0BED0BFD0BBD0BE00D09FD180D0B5D0D5
:1020C000B4D0BDD0B0D0B3D180D0B5D0B220504CB8
:1020D0004120D181D182D0BED0BB00D09FD180D051
:1020E000B5D0B4D0BDD0B0D0B3D180D0B5D0B220AF
:1020F000504C4100D09FD0BED0B4D0B3D0BED1821E
:10210000D0BED0B2D0B8D182D18C00D09FD180D0F7
:10211000B5D0B4D0BDD0B0D0B3D180D0B5D0B2207E
:1021200041425320D181D0BED0BFD0BBD0BE00D061
:102130009FD180D0B5D0B4D0BDD0B0D0B3D180D0F5
:10214000B5D0B22041425320D181D182D0BED0BB84
:1021500000D09FD180D0B5D0B4D0BDD0B0D0B3D155
:1021600080D0B5D0B22041425300D09FD0BED0B471
:10217000D0B3D0BED182D0BED0B2D0B8D182D18CB3
:10218000004D343238004D383000D092D18BD0BA67
:10219000D0BBD18ED187D0B8D182D18C20D0BFD046
:1021A000B8D182D0B0D0BDD0B8D0B5004D38310054
:1021B000D0A1D0B1D180D0BED18120424C546F7516
:1021C0006368004D323830205030205331363000B3
:1021D000D0A2D0B5D181D182D0B8D180D0BED0B27A
:1021E000D0B0D0BDD0B8D0B520424C546F75636824
:1021F000004D323830205030205331323000D09FE3
:10220000D180D0B5D0B4D0BDD0B0D0B3D180D0B50E
:10221000D0B22041425300D09FD180D0B5D0B4D0AD
:10222000BDD0B0D0B3D180D0B5D0B220504C410099
:10223000D09ED185D0BBD0B0D0B6D0B4D0B5D0BDB3
:10224000D0B8D0B500D092D0BAD0BBD18ED187D083
:10225000B8D182D18C20D0BFD0B8D182D0B0D0BD7F
:10226000D0B8D0B500D092D18BD0BAD0BB2E20D070
:10227000B4D0B2D0B8D0B3D0B0D182D0B5D0BBD06A
:10228000B8004D383400D097D0B0D0BFD0BED0BC4D
:10229000D0BDD0B8D182D18C20D0BFD0B0D180D029
:1022A000BAD0BED0B2D0BAD18300D092D18BD18176
:1022B000D0BED182D0B020D181D0BFD0B0D0B4D0E8
:1022C000B000D092D18BD181D0BED182D0B020D1FC
:1022D00081D0BFD0B0D0B4D0B000D092D18BD0BA22
:1022E000D0BB2E00D092D0BAD0BB2E00D09AD0B0A6
:1022F000D0BBD0B8D0B1D180D0BED0B2D0BAD0B0DF
:1023000020D181D182D0BED0BBD0B000D09AD0B085
:10231000D0BBD0B8D0B1D180D0BED0B2D0B0D182F5
:10232000D18C20D181D182D0BED0BB004732380AB7
:1023300047323900D09FD0B0D180D0BAD0BED0B211
:10234000D0BAD0B0205A00473238205A00D09FD09F
:10235000B0D180D0BAD0BED0B2D0BAD0B02059005F
:10236000473238205900D09FD0B0D180D0BAD0BEEB
:10237000D0B2D0BAD0B0205800473238205800D060
:1023800090D0B2D182D0BE20D0BFD0B0D180D0BA50
:10239000D0BED0B2D0BAD0B00047323800D094D03E
:1023A000B2D0B8D0B6D0B5D0BDD0B8D0B520D0BF9F
:1023B000D0BE20D0BED181D18FD0BC00D09CD0B5B2
:1023C000D0BDD18E00D0ADD0BAD181D182D180D153
:1023D00083D0B4D0B5D18000D094D0B2D0B8D0B62C
:1023E000D0B5D0BDD0B8D0B520D0BFD0BE205A0017
:1023F000D094D0B2D0B8D0B6D0B5D0BDD0B8D0B5CA
:1024000020D0BFD0BE205900D094D0B2D0B8D0B622
:10241000D0B5D0BDD0B8D0B520D0BFD0BE205800E8
:10242000D09FD0BED0B4D0B3D0BED182D0BED0B2B7
:10243000D0B8D182D18C00D098D0BDD0B8D186D0C0
:10244000B8D0B0D0BBD0B8D0B7D0B0D186D0B8D18A
:102450008F20454550524F4D00D09DD0B0D181D1F5
:1024600082D180D0BED0B9D0BAD0B800D092D0BE80
:10247000D181D181D182D0B0D0BDD0BED0B2D0B8C0
:10248000D182D18C20D0BDD0B0D181D182D1802E4B
:1024900000D097D0B0D0B3D180D183D0B7D0B8D14D
:1024A00082D18C20D0BDD0B0D181D182D180D0BE9C
:1024B000D0B9D0BAD0B800D098D0BDD0B8D186D0DD
:1024C000B8D0B0D0BBD0B8D0B7D0B0D186D0B8D10A
:1024D0008F20454550524F4D00D0A1D0BED185D15F
:1024E00080D0B0D0BDD0B8D182D18C20D0BDD0B0FA
:1024F000D181D182D180D0BED0B9D0BAD0B800427B
:102500004C546F75636800D0A4D0B8D0BBD0B0D0A5
:10251000BCD0B5D0BDD18200D094D0B2D0B8D0B6A6
:10252000D0B5D0BDD0B8D0B500D0A2D0B5D0BCD039
:10253000BFD0B5D180D0B0D182D183D180D0B0000E
:10254000D09CD0B5D0BDD18E004D33303320553125
:10255000204525692053256900D09FD180D0B5D072
:10256000B4D0BDD0B0D0B3D180D0B5D0B22041422C
:102570005320D0BDD0B0D181D182D1802E00D09F48
:10258000D180D0B5D0B4D0BDD0B0D0B3D180D0B58B
:10259000D0B220504C4120D0BDD0B0D181D182D119
:1025A000802E00504944204175746F74756E65002B
:1025B000504944204175746F74756E6500504944EC
:1025C0002D44005049442D44005049442D490050A9
:1025D00049442D49005049442D50005049442D5044
:1025E00000200820D0A4D0B0D0BAD182D0BED180F3
:1025F00000200820D0A4D0B0D0BAD182D0BED180E3
:1026000000200820D09CD0B0D0BAD1810020082072
:10261000D09CD0B0D0BAD18100200820D09CD0B0BE
:10262000D0BAD18100200820D09CD0B8D0BD0020E5
:102630000820D09CD0B8D0BD00200820D09CD0B8B5
:10264000D0BD00D092D18BD0BAD0BB2E00D092D0CA
:10265000BAD0BB2E00D090D0B2D182D0BED182D021
:10266000B5D0BCD0BFD0B5D180D0B0D182D183D1CC
:1026700080D0B000D09AD183D0BBD0B5D1802032E9
:1026800000D09AD183D0BBD0B5D180203200D09A6F
:10269000D183D0BBD0B5D180203200D09AD183D0A5
:1026A000BBD0B5D180203100D09AD183D0BBD0B57A
:1026B000D180203100D09AD183D0BBD0B5D1802039
:1026C0003100D0A1D182D0BED0BB00D0A1D182D068
:1026D000BED0BB00D0A1D0BED0BFD0BBD0BE00D03A
:1026E000A1D0BED0BFD0BBD0BE00D09DD0B0D181D4
:1026F000D182D180D0BED0B9D0BAD0B800D0A1D0CC
:10270000BED185D180D0B0D0BDD0B8D182D18C20FF
:10271000D0BDD0B0D181D182D180D0BED0B9D0BA15
:10272000D0B800D0A1D182D0BED0BB00D0A1D18280
:10273000D0BED0BB00D0A1D182D0BED0BB00D0A132
:10274000D0BED0BFD0BBD0BE00D0A1D0BED0BFD0F5
:10275000BBD0BE00D0A1D0BED0BFD0BBD0BE00D0B9
:102760009AD183D0BBD0B5D18000D09AD183D0BBD1
:10277000D0B5D18000D09AD183D0BBD0B5D1800064
:10278000D0A2D0B5D0BCD0BFD0B5D180D0B0D1828E
:10279000D183D180D0B00020204D393036003A0AA4
:1027A0000020286D6D2900205430204500205A005B
:1027B00020493100205A00205900205800537465E8
:1027C00070706572206472697665722063757272CA
:1027D000656E743A0A0020204D383531205A005A6F
:1027E0002D50726F6265204F6666736574002044D9
:1027F0000020490020204D33303420500020440078
:1028000020490020204D33303120500050494420D1
:1028100073657474696E67733A0A0020460020423B
:102820000020480020204D3134352053004D617484
:10283000657269616C206865617475702070617281
:10284000616D65746572733A0A00205A00204A006F
:1028500020204732392057204900205A0020204D9F
:102860003432302053004175746F20426564204C2F
:102870006576656C696E673A0A00205A0020590037
:1028800020204D323036205800486F6D65206F662D
:10289000667365743A0A00204500205A00205900EA
:1028A00020580020540020530020204D3230352085
:1028B000420020453C6D61785F655F6A65726B3EE2
:1028C0000020583C6D61785F785F6A65726B3E20CE
:1028D000593C6D61785F795F6A65726B3E205A3C46
:1028E0006D61785F7A5F6A65726B3E004164766104
:1028F0006E6365643A20423C6D696E5F7365676D17
:10290000656E745F74696D655F75733E20533C6DD1
:10291000696E5F66656564726174653E20543C6DE6
:10292000696E5F74726176656C5F6665656472611D
:1029300074653E0020540020520020204D32303477
:10294000205000416363656C65726174696F6E202D
:1029500028756E6974732F7332293A20503C707257
:10296000696E745F616363656C3E20523C7265748E
:10297000726163745F616363656C3E20543C747282
:102980006176656C5F616363656C3E0A002045009B
:10299000205A0020590020204D3230312058004D5F
:1029A0006178696D756D20416363656C65726174F2
:1029B000696F6E2028756E6974732F7332293A0A15
:1029C00000204500205A0020590020204D3230338D
:1029D0002058004D6178696D756D2066656564727B
:1029E000617465732028756E6974732F73293A0AB0
:1029F00000204500205A0020590020204D39322067
:102A0000580053746570732070657220756E697418
:102A10003A0A0020204D3230302044300A00202075
:102A20004D3230302044002044697361626C65642B
:102A30000A0046696C616D656E7420736574746913
:102A40006E67733A0020204D3134392043203B20FB
:102A5000556E69747320696E2043656C7369757374
:102A60000A002020473231202020203B007A5F6D71
:102A7000696E3A2000795F6D696E3A2000785F6D6B
:102A8000696E3A20005265706F7274696E672065D6
:102A90006E6473746F70207374617475730A00D000
:102AA0009FD0B0D180D0BAD183D0B92025732573FF
:102AB000257320D0BFD0B5D180D0B2D18BD0B90092
:102AC00020D0BFD0B5D180D0B2D18BD0B90A005AB6
:102AD0000059005800D09FD0B0D180D0BAD183D057
:102AE000B9200053442063617264206F6B0A006F49
:102AF00070656E526F6F74206661696C65640A0060
:102B0000766F6C756D652E696E6974206661696C8F
:102B100065640A00534420696E6974206661696CBB
:102B20000A0057726974696E6720746F2066696C59
:102B3000653A20006F70656E206661696C65642C73
:102B40002046696C653A20006F70656E2066616989
:102B50006C65642C2046696C653A200046696C659A
:102B60002073656C65637465640A002053697A6537
:102B70003A200046696C65206F70656E65643A2086
:102B8000002066696C653A2000646F696E670066B4
:102B900072657368004E6F772000454E4420535590
:102BA00042524F5554494E450A002220706F73001F
:102BB0002220706172656E743A2200535542524F62
:102BC0005554494E452043414C4C20746172676511
:102BD000743A2200D0A3D091D098D0A2D09E2E20BB
:102BE00000747279696E6720746F2063616C6C2069
:102BF0007375622D67636F64652066696C65732009
:102C00007769746820746F6F206D616E79206C65D0
:102C100076656C732E204D4158206C6576656C206E
:102C200069733A004572726F723A006F70656E2078
:102C30006661696C65642C2046696C653A20000207
:102C4000D0A3D091D098D0A2D09E2E2000202D20AD
:102C5000496E76616C69642065787472756465721A
:102C6000206E756D62657220210A001FFFFFFFFF55
:102C7000FFFF600000000001FF400000000000FFB7
:102C80008000000000007F83CF00000C303F87FFF2
:102C900080000C301F867980000C000F8C30C783B9
:102CA0008C30E78C30CFC7CC31F38C30DCECEC339C
:102CB000B98C30D86C6C33198C30D06C0C33198CC7
:102CC00030D86C0C33198C30DC6C0E3B198C30CF47
:102CD0007C079F198C30C77C038F194000000000CF
:102CE0000002600000000000061FFFFFFFFFFFF86A
:102CF0002020506C616E6E65724275666665724228
:102D0000797465733A20002046726565204D656DC3
:102D10006F72793A2000436F6D70696C65643A2078
:102D200041756720323920323031380A00207C204A
:102D3000417574686F723A20286169736576656EB3
:102D400068696C6C2C2064656661756C7420636FB7
:102D50006E666967290A00323031382D30382D30DF
:102D60003100204C61737420557064617465643A5D
:102D70002000312E312E390A004D61726C696E00CF
:102D800020536F6674776172652052657365740AAB
:102D900000205761746368646F67205265736574BF
:102DA0000A002042726F776E206F7574205265732F
:102DB00065740A002045787465726E616C205265F6
:102DC0007365740A00506F77657255700A007374EA
:102DD0006172740A006175746F25692E67006572EF
:102DE000726F722077726974696E6720746F2066E3
:102DF000696C650A00D0ADD0BDD0B4D181D182D08C
:102E0000BED0BFD18B2025632025632025632025DC
:102E10006300205A3A0020593A0020583A00656E63
:102E20006473746F7073206869743A2000446F6E25
:102E30006520736176696E672066696C652E0A008D
:102E40004D32390045D188D0B0D0B32FD0BCD0BCE2
:102E50000045D188D0B0D0B32FD0BCD0BC005AD15F
:102E600088D0B0D0B32FD0BCD0BC005AD188D0B05D
:102E7000D0B32FD0BCD0BC0059D188D0B0D0B32FA4
:102E8000D0BCD0BC0059D188D0B0D0B32FD0BCD0EA
:102E9000BC0058D188D0B0D0B32FD0BCD0BC005823
:102EA000D188D0B0D0B32FD0BCD0BC00D094D0B299
:102EB000D0B8D0B6D0B5D0BDD0B8D0B500D0A8D09D
:102EC000B0D0B32FD0BCD0BC00D0A0D18BD0B2D06A
:102ED000BED0BA00D0A3D181D0BAD0BED180D0B5F7
:102EE000D0BDD0B8D0B500D091D18BD181D182D115
:102EF00080D0BED182D0B000D0A1D0BCD0B5D18915
:102F0000D0B5D0BDD0B8D0B5205A00D0A1D0BCD05B
:102F1000B5D189D0B5D0BDD0B8D0B5205A00D09D9C
:102F2000D0B0D181D182D180D0BED0B9D0BAD0B802
:102F300000D094D0B8D0B0D0BCD0B5D182D1802050
:102F4000D184D0B8D0BBD0B0D0BCD0B5D0BDD182A8
:102F5000D0B000D094D0B8D0B0D0BCD0B5D182D150
:102F60008020D184D0B8D0BBD0B0D0BCD0B5D0BD3B
:102F7000D182D0B000D092D18BD0BAD0BB2E00D0AD
:102F800092D0BAD0BB2E004520D0B220D0BCD0BC4D
:102F90003300D09DD0B0D181D182D180D0BED0B904
:102FA000D0BAD0B80043616E6E6F7420656E7465E0
:102FB00072207375626469723A2000022E2E00D06E
:102FC0009CD0B5D0BDD18E0025753A253032750024
:102FD000253032753A25303275002575642025304C
:102FE00032753A2530327500202020202020005AEA
:102FF0000059002020202000580009200000000077
:103000000000000000000000003FFFF00000000092
:103010000000000000000000380070000000000008
:103020000000000000000030FC3000000000000044
:1030300000000000000020FC100000000000000064
:1030400000000000002078100000000000000000D8
:103050000000000020301000000000000000000010
:103060000000002C00D03FC0000000000000002045
:1030700082002E31D07FE0000000000000001041EF
:10308000002F7BD07FE00000000000000010410016
:103090002F7BD07FE0000000000000002082002E87
:1030A00031D03FC0000000000000004104002C00AF
:1030B000D03FC00000000000000082080020301057
:1030C0007FE0000000000000008208002078107FF0
:1030D000E00000000000000041040020FC107FE040
:1030E0000000000000000020820030FC301F800043
:1030F0000000000000000000003800700F00000019
:103100000000000000FFFFC03FFFF00600000000CD
:1031100000000000FFFFC0000000000000000000F1
:103120000000000000003FFFF00000000000000071
:1031300000000000003800700000000000000000E7
:103140000000000031863000000000000000000098
:1031500000000023871000000000000000000000B5
:103160000000278790000000000000000000000021
:10317000002F87D0000000000000000000000000C9
:103180002F03D03FC000000000000000208200207C
:1031900030107FE0000000000000001041002078A7
:1031A000107FE000000000000000104100207810B7
:1031B0007FE0000000000000002082002030103F6F
:1031C000C0000000000000004104002F03D03FC0F9
:1031D000000000000000008208002F87D07FE00080
:1031E0000000000000008208002787907FE00000B8
:1031F00000000000004104002387107FE000000071
:10320000000000002082003186301F800000000096
:103210000000000000003800700F000000000000F7
:103220000000FFFFC03FFFF00600000000000000AC
:1032300000FFFFC000000000060900FE00000000C3
:103240000001090008FE000005080806000040F023
:10325000C88888987810050808060000C0F8888893
:10326000888888F80505050600012030F83020051B
:1032700008080600002070F820202020E005090939
:103280000600FF2070A8A8B88888702005090906E4
:1032900000FFE080C0B0A8283028280509090600F2
:1032A000FFF8A88888888888A8F8050A0A0600FE1A
:1032B000205050505088A8A88870030303060003CC
:1032C00040A04045305F53455249414C5F52585FE2
:1032D00050494E0045305F53455249414C5F545868
:1032E0005F50494E005A5F53455249414C5F525816
:1032F0005F50494E005A5F53455249414C5F545804
:103300005F50494E00595F53455249414C5F5258F6
:103310005F50494E00595F53455249414C5F5458E4
:103320005F50494E00585F53455249414C5F5258D7
:103330005F50494E00585F53455249414C5F5458C5
:103340005F50494E005A325F535445505F50494ECA
:10335000005A325F454E41424C455F50494E005A3B
:10336000325F4449525F50494E005A325F43535FC7
:1033700050494E005A5F535445505F50494E005AD1
:103380005F4D494E5F50494E005A5F454E41424C99
:10339000455F50494E005A5F4449525F50494E00C4
:1033A0005A5F43535F50494E00595F535445505F35
:1033B00050494E00595F4D494E5F50494E00595F8C
:1033C000454E41424C455F50494E00595F44495279
:1033D0005F50494E00595F43535F50494E00585F5C
:1033E000535445505F50494E00585F4D494E5F5011
:1033F000494E00585F454E41424C455F50494E0092
:10340000585F4449525F50494E00585F43535F50E4
:10341000494E0053535F50494E00534552564F3268
:103420005F50494E00534552564F315F50494E0050
:10343000534552564F305F50494E0053445353004A
:1034400053445F4445544543545F50494E005343F1
:103450004B5F50494E0052414D50535F44395F50CD
:10346000494E0052414D50535F44385F50494E0021
:1034700052414D50535F4431305F50494E005053DC
:103480005F4F4E5F50494E004D4F53495F50494E7C
:10349000004D4F534645545F445F50494E004D49DF
:1034A000534F5F50494E004D4158363637355F53C4
:1034B00053004C45445F50494E004C43445F5049D3
:1034C0004E535F5253004C43445F50494E535F4547
:1034D0004E41424C45004C43445F50494E535F447B
:1034E00037004C43445F50494E535F4436004C43D1
:1034F000445F50494E535F4435004C43445F50494C
:103500004E535F4434004B494C4C5F50494E004889
:1035100045415445525F4245445F50494E0048453D
:10352000415445525F305F50494E0046494C5F520E
:10353000554E4F55545F50494E0046414E315F50F5
:10354000494E0046414E5F50494E0045315F53544D
:1035500045505F50494E0045315F454E41424C4514
:103560005F50494E0045315F4449525F50494E001B
:1035700045315F43535F50494E0045305F535445DA
:10358000505F50494E0045305F454E41424C455FCB
:1035900050494E0045305F4449525F50494E004506
:1035A000305F43535F50494E0045305F4155544FA3
:1035B0005F46414E5F50494E00455F4D5558325F62
:1035C00050494E00455F4D5558315F50494E0045BA
:1035D0005F4D5558305F50494E00434F4E54524F47
:1035E0004C4C45525F46414E5F50494E004341535B
:1035F000455F4C494748545F50494E0042544E5F26
:10360000454E430042544E5F454E320042544E5F99
:10361000454E31004245455045525F50494E0041AC
:1036200056525F53535F50494E004156525F5343C9
:103630004B5F50494E004156525F4D4F53495F50CA
:10364000494E004156525F4D49534F5F50494E001D
:1036500054454D505F4245445F50494E0054454DDE
:10366000505F315F50494E0054454D505F305F50C0
:10367000494E0046494C57494454485F50494E0012
:1036800054584400525844002020506F72743A201D
:10369000004F7574707574203D2000496E7075740C
:1036A00020203D200050574D3A2020253464005002
:1036B000574D3A20202534640050574D3A2020259C
:1036C00034640050574D3A20202534640050574D43
:1036D0003A20202534640050574D3A202025346488
:1036E0000050574D3A20202534640050574D3A2061
:1036F000202534640050574D3A2020253464005072
:10370000574D3A20202534640050574D3A2020254B
:1037100034640050574D3A20202534640050574DF2
:103720003A20202534640050574D3A202025346437
:103730000050574D3A20202534640050574D3A2010
:10374000202534640020202000202020416E616C60
:103750006F6720696E203D20253564003C756E75CD
:103760007365642F756E6B6E6F776E3E0020284117
:1037700025326429202000257350494E3A202533F4
:10378000642000416E616C6F6720696E203D2025CA
:1037900035640070726F746563746564200020285E
:1037A0004125326429202000257350494E3A2025B6
:1037B00033642000843600018036010173363B00FB
:1037C000683643005D3645005036440043363201CA
:1037D000363633012A3634011F36350114362501B9
:1037E0000C361F0104362101FC352301ED35310172
:1037F000DA352C01CF352801C4352A01B9352C0121
:10380000A93542019F352A0194351C0186351801DE
:103810007A351A0170352C016535220157351E01A4
:103820004B352401433509013A3507012B35040195
:103830001E350A010F35080106352901FA34170132
:10384000EE341901E2341B01D6341D01C6341101D6
:10385000BA341001B2340D01A73442019E34320152
:1038600091340701883433017E34040170340A0135
:1038700063340801563409014E34340140343101B7
:103880003B34350130340B01253406011A3405016F
:10389000133435010A34350100343701F33326017E
:1038A000E9330301DE333601D5333101CB333D013A
:1038B000BE333801B4330E01A9333C01A0332801D3
:1038C0009633300189333E017F33120174332E0168
:1038D0006A332C015F33220151331E014533240129
:1038E0003533280125333F0115333B0105334001B2
:1038F000F5322A01E5324101D4322C01C3324201B2
:10390000446F6E652E0A0074726967676572206E77
:103910006F742064657465637465640A00424C5476
:103920006F75636820636F6D70617469626C652088
:1039300070726F6265206465746563746564202DC0
:103940002070756C736520776964746820282B2F4C
:103950002D20346D53293A20006E6F697365206401
:1039600065746563746564202D20706C6561736592
:103970002072652D72756E20746573740A005A206A
:10398000536572766F2050726F626520646574654E
:10399000637465640A00706C656173652074726994
:1039A000676765722070726F62650A004552524FF8
:1039B000523A20424C544F55434820656E61626C28
:1039C0006564202D207365742074686973206465B4
:1039D000766963652075702061732061205A2053D9
:1039E0006572766F2050726F626520776974682007
:1039F000696E76657274696E672061732074727582
:103A0000652E0A002E202053544F57454420287419
:103A10007269676765726564292073746174653AB9
:103A2000204849474820286C6F6769632031290A7C
:103A3000002E202053544F57454420287472696744
:103A40006765726564292073746174653A204C4F10
:103A50005720286C6F6769632030290A002E2020C8
:103A60004445504C4F5945442073746174653A2065
:103A70004849474820286C6F6769632031290A004C
:103A80002E20204445504C4F594544207374617496
:103A9000653A204C4F5720286C6F676963203029A6
:103AA0000A00424C546F75636820636C6F6E65202A
:103AB00064657465637465640A005741524E494EEB
:103AC00047202D20494E56455254494E4720736594
:103AD0007474696E672070726F6261626C792062C3
:103AE00061636B77617264730A002E206465706C89
:103AF0006F7920262073746F7720342074696D6588
:103B0000730A0066616C73650A002E205A5F4D4986
:103B10004E5F454E4453544F505F494E56455254A4
:103B2000494E473A20002E2075736573205A5F4D29
:103B3000494E5F454E4453544F505F494E5645528F
:103B400054494E47202869676E6F726573205A5F2B
:103B50004D494E5F50524F42455F454E4453544F7E
:103B6000505F494E56455254494E47290A002E206F
:103B700070726F62652075736573205A5F4D494E90
:103B80002070696E3A20002E202073746F772061B8
:103B90006E676C653A202020002E20206465706CD2
:103BA0006F7920616E676C653A20002E2020757356
:103BB000696E6720696E6465783A202000536572EB
:103BC000766F2070726F626520746573740A005797
:103BD00061746368696E672070696E730A00616260
:103BE0006C65640A00656E0064697300656E6473D9
:103BF000746F70206D6F6E69746F722000627573E0
:103C0000793A2070617573656420666F7220696E01
:103C10007075740A00627573793A20706175736506
:103C20006420666F7220757365720A00627573791D
:103C30003A2070726F63657373696E670A00D0A370
:103C4000D091D098D0A2D09E2E20004B494C4C2031
:103C5000636175736564206279204B494C4C206226
:103C60007574746F6E2F70696E0A00D0A3D091D0F6
:103C700098D0A2D09E2E20004B494C4C20636175F9
:103C800073656420627920746F6F206D756368209E
:103C9000696E6163746976652074696D65202D2095
:103CA00063757272656E7420636F6D6D616E643AD8
:103CB0002000D0A1D0B4D0B5D0BBD0B0D0B9D18283
:103CC000D0B520D181D0B1D180D0BED18100D09FDC
:103CD000D0A0D098D09DD0A2D095D0A020D09ED0FA
:103CE000A1D0A2D090D09DD09ED092D09BD095D084
:103CF0009D005072696E7465722068616C746564B1
:103D00002E206B696C6C28292063616C6C656421C2
:103D10000A00206472697665722063757272656E3E
:103D2000743A2000656E7175657565696E6720224D
:103D30000020643A0020693A0020703A0000000038
:103D400000000000000000000000004842000048A1
:103D50004200008040000000005761726E696E678B
:103D60003A20486F6D696E672042756D7020446916
:103D70007669736F72203C20310A00020201000054
:103D8000A0400000A040000000000000964300009A
:103D9000704300008243FFFFFF20746F6F206C6F41
:103DA0006E6720657874727573696F6E20707265C6
:103DB00076656E7465640A0020636F6C64206578B4
:103DC00074727573696F6E2070726576656E746556
:103DD000640A0000002100240027002A002D003082
:103DE00000330001010000040107010A0100002264
:103DF00000250028002B002E0031003400020100B5
:103E000000050108010B0100002000230026002905
:103E1000002C002F00320000010000030106010900
:103E20000105050505070508080808020202020A3F
:103E30000A0808040404040101010101010101034D
:103E400003030303030303040707070C0C0C0C0C08
:103E50000C0C0C0202020206060606060606060BFB
:103E60000B0B0B0B0B0B0B01021020200808102072
:103E700040102040800201020108040201010204F6
:103E800008102040808040201008040201800402B5
:103E9000018040201008040201080402010102040C
:103EA0000810204080010204081020408000000A11
:103EB0000B02090C0D0E08070304010000000000AE
:103EC00000000000000000000000000000000000F2
:103ED00000000000000000000012111000000000AF
:103EE00000000000000000000000000000000000D2
:103EF00000000042FFFFFFFFFF000101010101621E
:103F000065640A002C2073797374656D2073746F77
:103F10007070656421204865617465725F49443A38
:103F20002000D0A0D0B0D0B7D0BED0B3D1802E204A
:103F3000D181D182D0BED0BBD0B020D0BDD0B520F1
:103F4000D183D0B42E0048656174696E67206661C4
:103F5000696C656400453120D0A0D0B0D0B7D0BE28
:103F6000D0B3D180D0B5D0B220D0BDD0B520D183D0
:103F7000D0B4D0B0D0BBD181D18F00486561746915
:103F80006E67206661696C656400D0A3D091D0989B
:103F9000D0A2D09E2E20001000AA03F0013A01907A
:103FA00002220130031001D00302017004F7001057
:103FB00005ED00B005E5005006DD00F006D70090E5
:103FC00007D1003008CC00D008C7007009C300102A
:103FD0000ABE00B00ABB00500BB700F00BB3009054
:103FE0000CB000D00DAA00100FA5005010A000903A
:103FF000119B00D0129600B014900090168B0070A8
:10400000188500501A8000301C7B00B01E750030EF
:10401000216F00B02369003026640010285F0090F3
:104020002A5A00702C5500F02E4F0070314800B015
:10403000324500F0334100703639001037370050F8
:1040400038330090392D00D03A2700B03C1C005086
:104050003D1700F03D1100903E0900D03FE5FF45BF
:104060003120D0A3D091D095D093D090D09DD0982E
:10407000D09520D0A2D095D09FD09BD09000D0A337
:10408000D091D095D093D090D09DD098D09520D07D
:10409000A2D095D09FD09BD09020D0A1D0A2D09E6E
:1040A000D09BD09000546865726D616C2052756E23
:1040B0006177617900453120D09ED188D0B8D0B1E8
:1040C000D0BAD0B03A20D0A220D0BCD0B0D0BAD193
:1040D000812E00D09ED188D0B8D0B1D0BAD0B03A1D
:1040E00020D0A220D181D182D0BED0BBD0B020D0F0
:1040F000BCD0B0D0BAD181004D415854454D50206C
:1041000074726967676572656400453120D09ED11D
:1041100088D0B8D0B1D0BAD0B03A20D0A220D0BC8C
:10412000D0B8D0BD2E00D09ED188D0B8D0B1D0BAF2
:10413000D0B03A20D0A220D181D182D0BED0BBD085
:10414000B020D0BCD0B8D0BD2E004D494E54454D06
:104150005020747269676765726564004D38342059
:10416000582059205A2045001000C90210012C0186
:104170004001220170011801B0010E01F00104019B
:104180005002FA00B002F0003003E600D003DC0079
:104190009004D2007005C800A006BE000008B4005C
:1041A000B009AA00D00BA000600E960060118C0030
:1041B0000015820020197800C01D6E00A022640046
:1041C000B0275A00902C500000314600E0343C00EB
:1041D00010383200903A2800603C1E00A03D1400C8
:1041E000803E0A00203F0000453400453300453240
:1041F000004531004530005A320059320058320033
:104200005A0059005800202F002042403A00204018
:104210003A00044202420042FD41FA41F741F441B2
:10422000F141EE41EB41E841747275650066616CE5
:104230007365002074656D706572617475726520B8
:104240007072657761726E207472696767657265F6
:10425000643A2000207072657761726E20666C612E
:104260006720636C65617265640A0074727565002D
:1042700066616C736500747275650066616C736568
:1042800000747275650066616C736500313D2E3196
:104290003800303D2E333235002F3331002F33318B
:1042A000002F333100747275650066616C736500B0
:1042B000D09DD0B520D183D0B4D0B0D0BBD0BED1AA
:1042C00081D18C20D0BFD180D0BED189D183D0BF45
:1042D000D0B0D182D18C0A00D09DD0B520D183D06E
:1042E000B4D0B0D0BBD0BED181D18C20D0BFD180D2
:1042F000D0BED189D183D0BFD0B0D182D18C0020A3
:104300005A3A200020593A200042656420583A2049
:104310000056D0BFD183D182D0B5D1882E20D0BC59
:10432000D0B8D0BD0056D0BFD183D182D0B5D1880E
:104330002E20D0BCD0B8D0BD0056D0BFD183D18202
:10434000D0B5D1882E20D0BCD0B8D0BD0056D0BCBE
:10435000D0B8D0BD0056D0BCD0B8D0BD0056D0BC6F
:10436000D0B8D0BD0056D0BCD0B0D0BAD181204595
:104370000056D0BCD0B0D0BAD18120450056D0BCB8
:10438000D0B0D0BAD18120450056D0BCD0B0D0BA80
:10439000D181205A0056D0BCD0B0D0BAD181205A99
:1043A0000056D0BCD0B0D0BAD181205A0056D0BC73
:1043B000D0B0D0BAD18120590056D0BCD0B0D0BA3C
:1043C000D18120590056D0BCD0B0D0BAD18120596B
:1043D0000056D0BCD0B0D0BAD18120580056D0BC45
:1043E000D0B0D0BAD18120580056D0BCD0B0D0BA0D
:1043F000D181205800D094D0B2D0B8D0B6D0B5D0AA
:10440000BDD0B8D0B50041D0BCD0B0D0BAD1812099
:10441000450041D0BCD0B0D0BAD18120450041D0B8
:10442000BCD0B0D0BAD181205A0041D0BCD0B0D0DD
:10443000BAD181205A0041D0BCD0B0D0BAD18120AD
:10444000590041D0BCD0B0D0BAD18120590041D060
:10445000BCD0B0D0BAD18120580041D0BCD0B0D0AF
:10446000BAD181205800412DD0BFD183D182D0B59F
:10447000D1882E00412DD0BFD183D182D0B5D18833
:104480002E00412DD0B2D182D18FD0B3D0B8D0B2CE
:10449000D0B0D0BDD0B8D0B500412DD0B2D182D1EE
:1044A0008FD0B3D0B8D0B2D0B0D0BDD0B8D0B500D6
:1044B000D0A3D181D0BAD0BED180D0B5D0BDD0B834
:1044C000D0B500D0A3D181D0BAD0BED180D0B5D0E4
:1044D000BDD0B8D0B500D094D0B2D0B8D0B6D0B599
:1044E000D0BDD0B8D0B50056652DD180D18BD0B21B
:1044F000D0BED0BA0056652DD180D18BD0B2D0BEFF
:10450000D0BA0056652DD180D18BD0B2D0BED0BAF2
:1045100000567A2D6A65726B00567A2D6A65726B49
:104520000056792D6A65726B0056792D6A65726B3B
:104530000056792D6A65726B0056782D6A65726B2C
:104540000056782D6A65726B0056782D6A65726B1D
:1045500000D094D0B2D0B8D0B6D0B5D0BDD0B8D0FD
:10456000B500203D20307800D09AD0B0D180D182E3
:10457000D0B020D0B8D0B7D0B2D0BBD0B5D187D0D2
:10458000B5D0BDD0B000D09AD0B0D180D182D0B05B
:1045900020D0B2D181D182D0B0D0B2D0BBD0B5D0F2
:1045A000BDD0B00000060900FE070191032020FFE6
:1045B000FF08FF07FF0000000600000107070602D2
:1045C0000080808080800080030202060105A0A098
:1045D0000507070600005050F850F850500507072F
:1045E0000600002078A07028F020050707060000CC
:1045F000C0C810204098180507070600006090A06A
:1046000040A89068020303060104C0408003070726
:10461000060100204080808040200307070601003B
:104620008040202020408005050506000120A8705C
:10463000A8200505050600012020F820200203031C
:104640000602FFC04080050101060003F8020202D5
:10465000060200C0C00505050600010810204080C4
:10466000050707060000708898A8C8887003070728
:1046700006010040C040404040E00507070600003A
:10468000708808708080F8050707060000F8102081
:10469000100808F005070706000010305090F810C9
:1046A00010050707060000F880F008088870050765
:1046B00007060000304080F0888870050707060074
:1046C00000F8081020202020050707060000708849
:1046D0008870888870050707060000708888780849
:1046E0001060020505060200C0C000C0C002060638
:1046F0000602FFC0C000C04080040707060000108B
:10470000204080402010050303060002F800F80452
:10471000070706010080402010204080050707069B
:1047200000007088081020002005060606000070B2
:10473000880868A870050707060000708888F88850
:104740008888050707060000F08888F08888F0054B
:1047500007070600007088808080887005070706BC
:104760000000E09088888890E0050707060000F8C0
:104770008080F08080F8050707060000F88080F050
:10478000808080050707060000708880B8888870E0
:10479000050707060000888888F8888888010707C9
:1047A0000602008080808080808005070706000068
:1047B000381010101090600507070600008890A0C0
:1047C000C0A0908805070706000080808080808058
:1047D000F805070706000088D8A888888888050794
:1047E000070600008888C8A898888805070706007B
:1047F0000070888888888870050707060000F088A0
:1048000088F080808005070706000070888888A8E7
:104810009068050707060000F08888F0A0908805DA
:104820000707060000788080700808F00507070673
:104830000000F8202020202020050707060000881F
:104840008888888888700507070600008888888817
:104850008850200507070600008888888888A850A7
:10486000050707060000888850205088880507073C
:1048700006000088888850202020050707060000D1
:10488000F80810204080F8030707060100E0808048
:10489000808080E0050505060001804020100803A7
:1048A0000707060100E02020202020E00503030682
:1048B0000004205088050101060000F802020206EB
:1048C0000205804005050506000070087888780517
:1048D00007070600008080B0C88888F00505050637
:1048E00000007080808870050707060000080868CF
:1048F000988888780505050600007088F88070059E
:1049000007070600003048E0404040400506060624
:1049100000FF70888878087005070706000080800F
:10492000B0C8888888010707060200800080808060
:1049300080800308080601FF200020202020A040DE
:10494000040707060000808090A0C0A0900307071E
:10495000060100C04040404040E00505050600005B
:10496000D0A8A8A8A8050505060000B0C8888888B2
:104970000505050600007088888870050606060093
:10498000FFF08888F080800506060600FF7888889A
:10499000780808050505060000B0C8808080050578
:1049A0000506000070807008F0050707060000404B
:1049B00040E040404830050505060000888888989A
:1049C000680505050600008888885020050505064D
:1049D00000008888A8A8500505050600008850201A
:1049E00050880506060600FF888888780870050547
:1049F00005060000F8102040F80307070601002014
:104A000040408040402001070706020080808080EF
:104A100080808003070706010080404020404080DE
:104A20000502020600036890000000060000000076
:104A30000006000000000006000000000006000064
:104A40000000000600000000000600000000000654
:104A5000000000000006000000000006000000004A
:104A60000006000000000006000000000006000034
:104A70000000000600000000000600000000000624
:104A8000000000000006000000000006000000001A
:104A90000006000000000006000000000006000004
:104AA00000000006000000000006000000000006F4
:104AB00000000000000600000000000600000000EA
:104AC00000060000000000060000000000060000D4
:104AD00000000006000000000006000000000006C4
:104AE00000000000000600000000000600000508AD
:104AF0000806000040F88080F08080F8050808066D
:104B0000000050F88080F08080F80507070600005C
:104B1000E04040704848700508080600001020F882
:104B20008880808080050707060000304880E0808C
:104B300048300507070600007088807008887003F9
:104B40000707060100E04040404040E00308080637
:104B50000100A000E040404040E0050707060000DB
:104B600038101010109060050707060000A0A0A0E4
:104B7000B8A8A8B8050707060000A0A0A0F8A8A834
:104B8000B8040707060000E0407050505050050878
:104B90000806000010208890A0E09088050808060C
:104BA000000040208898A8C888880509090600FFE9
:104BB0005020888888502020200508080600FF889B
:104BC0008888888888F8200507070600007088888C
:104BD000F8888888050707060000F88080F0888834
:104BE000F0050707060000F08888F08888F00507C0
:104BF00007060000F888808080808005080806008D
:104C0000FF782828284888F888050707060000F854
:104C10008080F08080F8050707060000A8A8A8702B
:104C2000A8A8A8050707060000F00808700808F003
:104C3000050707060000888898A8C888880508081E
:104C400006000050208898A8A8C888050707060015
:104C5000008890A0C0A0908805070706000078286B
:104C6000282828A84805070706000088D8A88888AB
:104C70008888050707060000888888F888888805DE
:104C8000070706000070888888888870050707066F
:104C90000000F8888888888888050707060000F0E3
:104CA0008888F08080800507070600007088808073
:104CB000808870050707060000F8202020202020AB
:104CC00005070706000088888850204080050707F0
:104CD0000600002070A8A8A870200507070600009D
:104CE000888850205088880508080600FF88888832
:104CF000888888F80805070706000088888898686B
:104D00000808050707060000A8A8A8A8A8A8F8058D
:104D100008080600FFA8A8A8A8A8A8F8080507077B
:104D2000060000C0404070484870050707060000B4
:104D3000888888C8A8A8C805070706000080808062
:104D4000F08888F005070706000070880838088892
:104D50007005070706000090A8A8E8A8A890050716
:104D60000706000078888878284888050505060029
:104D7000007008788878050707060000186080F042
:104D8000888870040505060000E090E090E00505C5
:104D900005060000F8888080800506060600FF787A
:104DA000284888F8880505050600007088F8807096
:104DB000050505060000A8A870A8A80505050600B9
:104DC00000F0083008F00505050600008898A8C81E
:104DD0008805070706000050208898A8C8880405A1
:104DE0000506000090A0C0A090050505060000F88B
:104DF0002828A84805050506000088D8A888880541
:104E000005050600008888F8888805050506000065
:104E10007088888870050505060000F888888888ED
:104E20000506060600FFF08888F080800505050667
:104E300000007080808870050505060000F82020BD
:104E400020200506060600FF888888780870050679
:104E5000060600002070A8A87020050505060000C1
:104E600088502050880506060600FF88888888F844
:104E7000080505050600008888F8080805050506E8
:104E80000000A8A8A8A8F80506060600FFA8A8A87C
:104E9000A8F808050505060000C040704870050523
:104EA000050600008888C8A8C8030505060100801B
:104EB00080C0A0C005050506000070883888700510
:104EC000050506000090A8E8A89005050506000065
:104ED0007888782848050808060000402000708877
:104EE000F8807005070706000050007088F8807091
:104EF0000509090600FF40E0404078484848100591
:104F00000808060000102000F8888080800505054C
:104F10000600007088608870050505060000708036
:104F20007008F00107070602008000808080808002
:104F3000030707060100A000404040404003080866
:104F40000601FF200020202020A0400505050600C6
:104F500000A0A0B8A8B8050505060000A0A0F8A804
:104F6000B805060606000040E040784848040808F6
:104F700006000010200090A0C0A0900508080600C0
:104F8000004020008898A8C8880509090600FF503D
:104F900020008888887808700506060600FF888843
:104FA0008888F82043616E6E6F74206F70656E2084
:104FB00073756264697220006563686F3A005265B8
:104FC00073656E643A20006F6B0020746F6F206C05
:104FD0006F6E6720657874727573696F6E2070727A
:104FE0006576656E7465640A0020636F6C64206585
:104FF0007874727573696F6E2070726576656E7401
:1050000065640A005374616E64617264204465765D
:10501000696174696F6E3A20002052616E67653A6B
:105020002000204D61783A2000204D696E3A200022
:105030004D65616E3A200046696E6973686564214A
:105040000A002072616E67653A2000206D61783A2F
:105050002000206D696E3A2000207369676D613A07
:105060002000206D65616E3A20003A207A3A2000D7
:10507000206F662000205A00205900205800476FFA
:10508000696E6720746F3A00436C6F636B77697366
:10509000650A00436F756E7465722D002044697255
:1050A000656374696F6E3A2000202020616E676C22
:1050B000653A20005374617274696E67207261648E
:1050C0006975733A2000506F736974696F6E696E09
:1050D00067207468652070726F62652E2E2E0A003C
:1050E0003F4E756D626572206F66206C6567732038
:1050F000696E206D6F76656D656E74206E6F7420BD
:10510000706C61757369626C652028302D313529AA
:105110002E0A003F2028582C5929206F7574206FC3
:105120006620626F756E64732E0A003F53616D7066
:105130006C652073697A65206E6F7420706C617580
:105140007369626C652028342D3530292E0A004D94
:105150003438205A2D50726F626520526570656137
:10516000746162696C69747920546573740A003FD4
:105170002856296572626F7365206C6576656C20B0
:10518000697320696D706C61757369626C65202844
:10519000302D34292E0A004D3234004D3233202573
:1051A0007300556E6B6E6F776E20636F6D6D616E01
:1051B000643A2022005465766F20426C61636B2054
:1051C0005769646F7720D0B3D0BED182D0BED0B241
:1051D0002E00D09FD0B5D187D0B0D182D18C2E2EC9
:1051E0002E00D09FD0B5D187D0B0D182D18C20D025
:1051F000BDD0B020D0BFD0B0D183D0B7D0B500D013
:105200009DD0B0D0B1D0B8D0B2D0BAD0B020424C3E
:10521000546F756368004D32383020503020533958
:105220003000D0A3D181D182D0B0D0BDD0BED0B219
:10523000D0BAD0B020424C546F756368004D3238FC
:10524000302050302053313000D0A2D0B5D181D1A0
:1052500082D0B8D180D0BED0B2D0B0D0BDD0B8D07E
:10526000B520424C546F756368004D323830205081
:1052700030205331323000D0A1D0B1D180D0BED156
:105280008120424C546F756368004D323830205095
:1052900030205331363000D09CD0B5D0BDD18E00F7
:1052A000D09FD0B5D187D0B0D182D18C20D0BED103
:1052B00082D0BCD0B5D0BDD0B5D0BDD0B000D09FCD
:1052C000D0B5D187D0B0D182D18C20D181205344A8
:1052D00020D0BAD0B0D180D182D18B00D09ED181E4
:1052E000D182D0B0D0BDD0BED0B2D0B8D182D18C16
:1052F00020D0BFD0B5D187D0B0D182D18C00D09F83
:10530000D180D0BED0B4D0BED0BBD0B6D0B8D182C0
:10531000D18C20D0BFD0B5D187D0B0D182D18C0074
:10532000D09DD0B5D18220534420D0BAD0B0D18006
:10533000D182D18B00D09FD0B0D183D0B7D0B02054
:10534000D0BFD0B5D187D0B0D182D0B800D09DD059
:10535000B0D181D182D180D0BED0B9D0BAD0B8007E
:10536000D09FD0BED0B4D0B3D0BED182D0BED0B248
:10537000D0B8D182D18C00D09DD0B0D181D182D192
:1053800080D0BED0B8D182D18C00D098D0BDD1848D
:10539000D0BED180D0BCD0B0D186D0B8D0BED0BD28
:1053A000D0BDD18BD0B920D18DD0BAD180D0B0D0E2
:1053B000BD00D09CD0B8D0BAD180D0BED188D0B0FA
:1053C000D0B3205A006F6E2E0A006F66662E0A0058
:1053D000473236204465627567200046696C616D0E
:1053E000656E7420757365643A200053746174733C
:1053F0003A20002C204C6F6E67657374206A6F62D0
:105400003A2000546F74616C2074696D653A200015
:1054100053746174733A20002C204661696C656492
:105420003A20002C2046696E69736865643A200052
:105430005072696E74733A200053746174733A2029
:105440000020573A00D09ED185D0BBD0B0D0B6D086
:10545000B4D0B5D0BDD0B8D0B520D181D182D0BE26
:10546000D0BBD0B02E2E2E00D09DD0B0D0B3D180E6
:10547000D0B5D0B220D181D182D0BED0BBD0B02E99
:105480002E2E004D31343520533C696E6465783ED4
:10549000206F7574206F662072616E6765202830FA
:1054A0002D31290A0050533A310A0050533A300A3C
:1054B000005465766F20426C61636B205769646F9E
:1054C0007720D092D18BD0BAD0BB2E2E00D094D0E2
:1054D000B2D0B8D0B6D0B5D0BDD0B8D0B520D0BF3E
:1054E000D0BE205800D094D0B2D0B8D0B6D0B5D06D
:1054F000BDD0B8D0B520D0BFD0BE205900D094D0F8
:10550000B2D0B8D0B6D0B5D0BDD0B8D0B520D0BF0D
:10551000D0BE205A00D0ADD0BAD181D182D180D1B5
:1055200083D0B4D0B5D18000D094D0B2D0B8D0B6AA
:10553000D0B5D0BDD0B8D0B520302E31D0BCD0BC85
:1055400000D094D0B2D0B8D0B6D0B5D0BDD0B8D0FD
:10555000B52031D0BCD0BC00D094D0B2D0B8D0B639
:10556000D0B5D0BDD0B8D0B5203130D0BCD0BC0083
:10557000D094D0B2D0B8D0B6D0B5D0BDD0B8D0B518
:1055800020D0BFD0BE20D0BED181D18FD0BC00D022
:10559000ADD0BAD181D182D180D183D0B4D0B5D1B0
:1055A0008000D094D0B2D0B8D0B6D0B5D0BDD0B8ED
:1055B000D0B520D0BFD0BE205A00D094D0B2D0B841
:1055C000D0B6D0B5D0BDD0B8D0B520D0BFD0BE20D9
:1055D0005900D094D0B2D0B8D0B6D0B5D0BDD0B8E4
:1055E000D0B520D0BFD0BE2058002A0158011124C8
:1055F0001FBECFEFD1E2DEBFCDBF00E00CBF13E096
:10560000A0E0B2E0E6EAFBEC02E00BBF02C00790CC
:105610000D92A23DB107D9F729E1A2EDB3E001C097
:105620001D92A13FB207E1F71AE2C6EFDAE200E00D
:1056300006C021970109802FFE010F940965C53F1F
:10564000D10780E00807A9F70F948D4B0D94C26530
:105650000C9400002F923F924F925F926F927F9234
:105660008F929F92AF92BF92CF92DF92EF92FF9272
:105670000F931F93CF93DF93CDB7DEB7C857D109F0
:105680000FB6F894DEBF0FBECDBF21E020933D0FD3
:10569000809138178D3409F44AC5843511F40C947F
:1056A0001B41873411F00C9467418091361790911B
:1056B00037178C31910509F40DC2A4F4843091059B
:1056C00034F48230910594F597FF29C02CC58430BD
:1056D000910509F4C1C14A9709F025C50E940965E1
:1056E0000C9469418A32910509F4CAC344F48D319E
:1056F000910509F4ECC24E9709F4EDC214C58B353F
:10570000910509F499C48C35910509F499C48A3539
:10571000910509F008C51092D6030C946941809157
:105720003F0281110C946E410C94694120913F021B
:10573000222311F40C94694111E0029709F010E062
:105740000E94514B19821A821B821C821D821E826A
:105750001F82188682E50E94B163882309F42CC158
:105760000E9437636B017C012091EF0A3091F00AAF
:105770004091F10A5091F20A2CA33DA34EA35FA3DE
:105780008090F30A9090F40AA090F50AB090F60A7F
:105790008091030B9091040BA091050BB091060B27
:1057A0008CA79DA7AEA7BFA72091070B3091080B30
:1057B0004091090B50910A0B28A739A74AA75BA76C
:1057C00020E030E0A901C701B6010F94395B8823BE
:1057D00009F408C12CA13DA14EA15FA16CA57DA536
:1057E0008EA59FA50F94395B81110BC0A501940173
:1057F00068A579A58AA59BA50F94395B882309F430
:10580000F1C020E030E0A901C701B6010F94395B77
:10581000881F8827881F181309C080E090E0A0E83F
:10582000BFE38CAF9DAFAEAFBFAF08C020E030E0AC
:1058300040E85FEB2CAF3DAF4EAF5FAF2CA13DA179
:105840004EA15FA16CA57DA58EA59FA50F940762B3
:105850006CAB7DAB8EAB9FABA501940168A579A520
:105860008AA59BA50F94076268AF79AF8AAF9BAFFB
:105870002CA93DA94EA95FA9CA01B9010F949E5B4D
:105880002B013C0128AD39AD4AAD5BADCA01B90170
:105890000F949E5B9B01AC01C301B2010F9408629F
:1058A0000F94756468AB79AB8AAB9BAB20E030E0BA
:1058B00040E05FE30F949E5B2B013C01A701960142
:1058C000C701B6010F949E5B6B017C01A30192019D
:1058D000C301B2010F949E5B9B01AC01C701B601ED
:1058E0000F9407620F9475649B01AC016CAD7DADA4
:1058F0008EAD9FAD0F949E5B6B017C012CA53DA5E9
:105900004EA55FA56CA17DA18EA19FA10F940862F9
:1059100020E030E040E05FE30F949E5B2B013C0110
:1059200068AD79AD8AAD9BAD905828A939A94AA92F
:105930005BA90F94E4629B01AC01C701B6010F940F
:105940009E5B9B01AC01C301B2010F9408622CA1C4
:105950003DA14EA15FA10F94076269837A838B8377
:105960009C8328A539A54AA55BA5C501B4010F9460
:10597000086220E030E040E05FE30F949E5B2B0183
:105980003C0128A939A94AA95BA96CA97DA98EA9BE
:105990009FA90F94E4629B01AC01C701B6010F946B
:1059A0009E5B9B01AC01C301B2010F940862A5018B
:1059B00094010F94076212C089E40E94B1638823A6
:1059C00031F00E94376369837A838B839C838AE4F6
:1059D0000E94B163882331F00E9437636D837E8318
:1059E0008F83988720E030E0A90169817A818B81DB
:1059F0009C810F94395B81110BC020E030E0A9013C
:105A00006D817E818F8198850F94395B882351F059
:105A1000412FBE016F5F7F4F83E09BE00E9435E323
:105A20000C946941E4E2FCE284918F010F5F1F4F07
:105A3000882321F00E944261F801F6CFE3E7F4E009
:105A400084918F010F5F1F4F882311F40C946941DB
:105A50000E944261F801F4CF80E50E94B16388237F
:105A600029F00E9461606B017C0103C0C12CD12C24
:105A7000760183E50E94B163882361F00E94376359
:105A800020E030E04AE754E40F949E5B0F945163AA
:105A90006B017C010E948AF58091ED11811105C096
:105AA00060E089E894E00F9485260E9434F9C60EE0
:105AB000D71EE81EF91E0E9434F9DC01CB018C19B7
:105AC0009D09AE09BF09B7FD02C00C9469410E944F
:105AD00019DFF1CF80916F108770873071F48FE4F8
